:020000040800F2
:10000000100C002001010008590C00080D0C00081C
:10001000550C00081F0A00084F20000800000000CF
:10002000000000000000000000000000E10E0008D9
:100030005B0A0008000000005D0D0008F50F0008D5
:100040001B0100081B0100081B0100081B01000820
:100050001B0100081B0100081B0100081B01000810
:100060001B0100081B0100081B0100081B01000800
:100070001B0100081B0100081B0100081B010008F0
:100080001B0100081B0100081B0100081B010008E0
:100090001B0100081B0100081B0100081B010008D0
:1000A0001B010008111300081B0100081B010008B8
:1000B000FD1300081B0100084D1500081B01000876
:1000C0001B0100081B0100081B0100081B010008A0
:1000D0001B010008351C0008B91C0008611E00083F
:1000E0001B0100081B0100081B010008DFF80CD0F1
:1000F00000F062FB00480047ED250008100C0020CE
:100100000648804706480047FEE7FEE7FEE7FEE7B1
:10011000FEE7FEE7FEE7FEE7FEE7FEE7F90F000871
:10012000ED00000840EA01039B0703D009E008C97D
:10013000121F08C0042AFAD203E011F8013B00F8AC
:10014000013B521EF9D27047F0B480EA0102D40F8D
:100150004200B2EB410F02D20246084611464A0065
:1001600042D0C30DDDB2C1F3C752AD1A202D35DA2E
:10017000C1F3160141F4000204B15242C5F1200658
:1001800002FA06F12A411044B3EBD05F23D0C4B188
:10019000012DA0EBC35009DCF0BC4FF0004202EA95
:1001A000C352DBB200F5000000F07BBA400000F162
:1001B000807000EBC350A0F1807040EAD17049001C
:1001C00009E0490841EAC071A0EBC35000F5000006
:1001D000400800EBC350F0BC00F05ABA6142012263
:1001E00002EB4101001BF6E7F0BC704781F00041D3
:1001F000AAE780F00040A7E780EA010210B502F00C
:100200000043400022D04A001FD0010E01EB1261D2
:10021000C0F35600C2F3560240F4000042F400025C
:10022000A0FB022000047F39140400D0401C50EAD7
:10023000124001D44000491EC2B20C0604EBD0109B
:10024000401C4008802A02D003E0002010BD20F0AE
:100250000100002900DA0020184310BD30B480EA04
:10026000010202F0004530F0004221F0004013D0BE
:1002700090B1C30DD40DC2F31601C0F31600E41AF9
:1002800041F4000140F400027D34914201D3641C2A
:1002900000E04900002C02DA30BC002070474FF427
:1002A00000000023914201D3891A034340084FEA1A
:1002B0004101F7D151B1914202D14FF0004105E027
:1002C00002D24FF0010101E06FF0010103EBC450D5
:1002D000284430BC00F0DCB92DE9FE4F81EA03046C
:1002E00004F0004421F0004100944FF0000B23F093
:1002F000004350EA01045ED052EA03045BD0C3F32A
:100300000A54C1F30A552C44A4F2F3340194A0FB1F
:100310000254C1F3130141F48011C3F3130343F4F6
:10032000801301FB024400FB034E840A970A44EA4F
:10033000815447EA8357A4FB076802958D0A05FBA1
:1003400007854FEA932C04FB0C542705029D4FEAC6
:10035000065847EA1637B5EB08056EEB070C870E13
:10036000920E47EA811742EA8312A7FB0201B6EB1D
:100370000B0164EB00042B0D43EA0C335E1844EBD5
:100380001C50DA465146E7FB0201C5F313044FEA5D
:100390000B3343EA14534FEA0432019C43EA060349
:1003A000A4F10C040294009CCDE900B400F0B6F96D
:1003B00003B0BDE8F08F00200146F9E72DE9F04DCC
:1003C00081EA030404F0004B21F0004514464FF08D
:1003D000000A23F0004150EA050220D054EA01024D
:1003E0001DD0C5F30A570246C5F31303C1F313002A
:1003F000C1F30A5640F4801543F48013A7EB0608B6
:10040000101BD64608F2FD3873EB050002D308F145
:10041000010801E092185B41B8F1000F03DA0020F7
:100420000146BDE8F08D00204FF480110646844659
:100430000EE0171B73EB050705D3121B63EB0503D7
:1004400006434CEA010C49084FEA300092185B4120
:1004500050EA0107EDD152EA030012D082EA04000B
:1004600083EA0501084305D0101BAB4106D20122E7
:10047000002306E000224FF0004302E06FF001028B
:1004800053101AEB06004CEB085110EB0A0041EB3D
:100490000B01BDE8F04D00F032B9C10F80EAE07009
:1004A0000844CA079623002100F0FBB80EB5C10F1F
:1004B00080EAE0700844CA07002140F233438DE827
:1004C0000E000A460B4600F029F903B000BD0EB538
:1004D00040F2334102910021CDE900110A460B465A
:1004E00000F01CF903B000BD00F0004220F0004015
:1004F000C10DC0F3160040F400007F2901DA00208E
:100500007047962903DCC1F19601C84001E0963995
:100510008840002AF4D04042704770B5C1F30A52B7
:1005200001F000450024C1F3130140F2FF3341F410
:1005300080119A4201DA002070BD40F233439A42A2
:10054000A2F2334203DC524200F092F800E0904005
:100550002C43F1D0404270BDC1F30A5210B5C1F333
:10056000130140F2FF3341F480119A4201DA002076
:1005700010BD40F233439A42A2F2334203DC5242AE
:1005800000F076F810BD904010BD00F0004230F051
:1005900000400AD0C10D01F56071C0F3160042EAB7
:1005A0000151C208400711437047002001467047BF
:1005B00030B5041E71F1000404DB4FF000444042EA
:1005C00064EB0101141E73F1000405DB1C464FF0BF
:1005D0000043524263EB04038B4208BF824230BDAA
:1005E00030B5041E71F1000404DB4FF000444042BA
:1005F00064EB0101141E73F1000405DB1C464FF08F
:100600000043524263EB0403994208BF904230BD5D
:1006100001F0004330B421F0004150EA010206D05D
:100620000A0DA2F56072C1F31301002A02DC30BC8E
:1006300000207047440F44EAC104C100E01830BCF8
:1006400000EBC25000F024B8002801DBC0F10040EC
:10065000002901DBC1F1004181427047002801DB24
:10066000C0F10040002901DBC1F100418842704720
:10067000202A04DB203A21FA02F00021704721FAF7
:1006800002F3D040C2F1200291400843194670475E
:100690000029A8BF7047401C490008BF20F0010096
:1006A000704710B4B0FA80FC00FA0CF050EA010474
:1006B00004BF10BC704749B1CCF1200421FA04F406
:1006C00011FA0CF118BF012121430843A3EB0C01DF
:1006D000CB1D4FEA00614FEA102042BF002010BC42
:1006E000704700EBC35010440029A4BF10BC7047F2
:1006F000401C490008BF20F0010010BC704710B535
:10070000141E73F1000408DA401C41F10001921834
:100710005B411A4301D120F0010010BD2DE9F04DDD
:1007200092469B4611B1B1FA81F202E0B0FA80F232
:100730002032904600F052F804460F4640EA0A0084
:1007400041EA0B0153465A46084313D0114653EA77
:10075000010019D0C8F140025046FFF789FF054655
:100760000E4650465946424600F038F8084305D038
:10077000012004E020463946BDE8F08D0020054305
:1007800046EAE0762C4337430A986305E40AA0EB77
:1007900008000022FD0A44EA47540A3002D500202E
:1007A0000146E9E7010510196941DDE9084500192D
:1007B0006941BDE8F04DA2E7064C074D06E0E06850
:1007C00040F0010394E8070098471034AC42F6D398
:1007D000FFF790FC9C580008BC580008202A04DB56
:1007E000203A00FA02F1002070479140C2F1200344
:1007F00020FA03F319439040704730B58C1810F875
:10080000012B12F00F0301D110F8013B120906D1A0
:1008100010F8012B03E010F8015B01F8015B5B1E8F
:10082000F9D101E001F8013B521EFBD1A142E6D310
:10083000002030BD21B1826842F00102826003E0F5
:10084000826822F0010282607047000010B5044601
:100850001248844208D10121401500F0ADFA002170
:10086000601500F0A9FA17E00D48844208D1012173
:10087000001500F0A1FA0021201500F09DFA0BE010
:100880000848844208D10121C80300F095FA0021EC
:100890004FF4004000F090FA10BD00000024014029
:1008A00000280140003C0140014600208A6802F017
:1008B00004020AB1012000E0002070470146C86C24
:1008C00080B270470246002013680B400BB1012034
:1008D00000E000207047014600208A6802F008020C
:1008E0000AB1012000E000207047000030B5024648
:1008F0000020002350680F4C20400D790C6844EA1A
:1009000005242043506090680B4C2040D1E90254EC
:100910002C434D7944EA450420439060D06A20F48A
:1009200070000C7C641EE4B2234340EA0350D062A2
:1009300030BD0000FFFEF0FFFDF7F1FFF0B504460B
:100940000D4600200021092D11DDE068A5F10A0601
:1009500006EB4607072606FA07F18843A5F10A06C3
:1009600006EB460603FA06F10843E0600CE0206956
:1009700005EB4507072606FA07F1884305EB450610
:1009800003FA06F108432061072A0FDA606B561E4E
:1009900006EB86071F2606FA07F18843561E06EB6C
:1009A000860605FA06F10843606322E00D2A0FDA95
:1009B000206BD61F06EB86071F2606FA07F1884331
:1009C000D61F06EB860605FA06F10843206310E001
:1009D000E06AA2F10D0606EB86071F2606FA07F16C
:1009E0008843A2F10D0606EB860605FA06F10843D8
:1009F000E062F0BD816841F008018160704721B17B
:100A0000826842F4A002826003E0826822F4A002BD
:100A100082607047816841F004018160704700BFC7
:100A2000FEE708B50146002004E00A5C0DF800204E
:100A3000421CD0B20228F8DBBDF9000008BD08B5A1
:100A40000146002004E00A5C0DF80020421CD0B2F0
:100A50000228F8DBBDF8000008BD70472DE9F04121
:100A6000024600250026002000230024002791F8DC
:100A700003C00CF00F0591F803C00CF0100CBCF192
:100A8000000F03D091F802C04CEA050591F800C0B0
:100A9000BCF1000F31D0146800202BE04FF0010CA6
:100AA0000CFA00F3B1F800C00CEA03069E4220D114
:100AB00083004FF00F0C0CFA03F7BC4305FA03FC5C
:100AC0004CEA040491F803C0BCF1280F06D14FF0A2
:100AD000010C0CFA00FCC2F814C00AE091F803C043
:100AE000BCF1480F05D14FF0010C0CFA00FCC2F824
:100AF00010C0401C0828D1D31460B1F800C0BCF16C
:100B0000FF0F34DD546800202EE000F1080C4FF098
:100B1000010808FA0CF3B1F800C00CEA03069E4283
:100B200021D183004FF00F0C0CFA03F7BC4305FAF8
:100B300003FC4CEA040491F803C0BCF1280F05D172
:100B400000F1080C08FA0CF8C2F8148091F803C000
:100B5000BCF1480F07D100F1080C4FF0010808FA6A
:100B60000CF8C2F81080401C0828CED35460BDE8B1
:100B7000F0810000F0B50A46002300240021002582
:100B800000F00046B6F1004F02D11D4EF16901E0C0
:100B90001B4E7168C0F3034583B200F44016B6F5EE
:100BA000401F08D121F07061154E766826F07066FE
:100BB000134F7E6012E000F48016B6F5801F06D158
:100BC000032606FA05F4A14341F0706106E0460DE4
:100BD000360103FA06F6B14341F0706122B1460DC9
:100BE000360103FA06F6314300F00046B6F1004F35
:100BF00002D1034EF16101E0014E7160F0BD0000D1
:100C000000000140416170470161704700BFFEE78D
:100C100000B50346184600F005F8184600F00EF837
:100C200000BD000018B10121034A116002E000215B
:100C3000014A1160704700009001214218B1012162
:100C4000034A116002E00021014A11607047000070
:100C50008881214200BFFEE77047000070B5002187
:100C600000230F22C47804B3154C246804F4E06414
:100C7000C4F5E064210AC1F10403CA40447804FACF
:100C800003F184781440214309010E4C0678A155E4
:100C9000047804F01F050124AC4005786D11AD0007
:100CA00005F1E025C5F8004109E0047804F01F05CE
:100CB0000124AC40044D0678761145F8264070BDFD
:100CC0000CED00E000E400E080E100E030B500243D
:100CD0000CE0002506E00020074901EBC50108559E
:100CE000681CC5B2802DF6DB601CC4B2082CF0DB9A
:100CF00002F090F830BD0000FA03002010B5144B4C
:100D000019600023134CC4F8B031002215E0002311
:100D1000114C236000F0800323B101230C4C0834F4
:100D2000236003E000230A4C0834236001230A4CAB
:100D300023604306180E531CDAB2082AE7DB0123AE
:100D4000034C241F2360034CC4F8B43110BD0000D1
:100D5000B481214200802142A0012142704700005D
:100D600001460020034A506820F440400843506088
:100D7000704700000010024029B1064AD2690243C0
:100D8000044BDA6104E0034AD2698243014BDA6121
:100D9000704700000010024029B1064A92690243E0
:100DA000044B9A6104E0034A92698243014B9A61C1
:100DB000704700000010024029B1064AD268024381
:100DC000044BDA6004E0034AD2688243014BDA60E4
:100DD000704700000010024030B5002100220024BE
:100DE00000232D4D6D6805F00C0121B1042905D0BB
:100DF000082923D105E0294D056022E0274D056033
:100E00001FE0254D6D6805F47012234D6D6805F4E3
:100E10008034022505EB92421CB9214D55430560F3
:100E20000BE01D4D6D6805F400351DB11C4D55439B
:100E3000056002E0194D5543056002E0174D05605D
:100E400000BF00BF144D6D6805F0F0010909154D94
:100E50006B5C0568DD4045600F4D6D6805F4E06131
:100E6000090A104D6B5C4568DD4085600A4D6D6870
:100E700005F46051C90A0B4D6B5C4568DD40C560E7
:100E8000054D6D6805F44041890B074D6B5CC568E5
:100E9000B5FBF3F5056130BD0010024000127A0089
:100EA00000093D005A0100206A0100200146022984
:100EB00002D0042910D108E04FF08042928C10B289
:100EC00000224FF080439A8406E0044A128810B250
:100ED0000022024B1A8000BF00BF70472408004068
:100EE000704710B500F002F810BD00000CB50020EE
:100EF000019000903348006840F480303149086028
:100F000000BF3048006800F4003000900198401C99
:100F10000190009818B90198B0F5A06FF1D1294857
:100F2000006800F4003010B10120009001E00020C2
:100F300000900098012843D12348006840F0100039
:100F4000214908600846006820F003000860084650
:100F5000006840F0020008601A484068194948607B
:100F60000846406848600846406840F48060486031
:100F70000846406820F47C1048600846406840F409
:100F8000E81048600846006840F08070086000BFC4
:100F90000C48006800F000700028F9D0094840684B
:100FA00020F00300074948600846406840F002000E
:100FB000486000BF0348406800F00C000828F9D1E1
:100FC0000CBD00000010024000200240042808D19F
:100FD0004FF0E021096941F004014FF0E022116176
:100FE00007E04FF0E021096921F004014FF0E02211
:100FF000116170477047000010B51348006840F059
:1010000001001149086008464068104908400E492F
:101010004860084600680E4908400B4908600846C9
:10102000006820F4802008600846406820F4FE0034
:1010300048604FF41F008860FFF753FF4FF00060D7
:101040000449086010BD0000001002400000FFF8D5
:10105000FFFFF6FE08ED00E0F0B50C461546002255
:101060000021068C4FF6FE773E400684028B018CF1
:101070004FF60C7632407E1C06EA03162E433243AE
:10108000104EB0420ED0104EB0420BD0B0F1804F97
:1010900008D00E4EB04205D00D4EB04202D00D4EDB
:1010A000B04206D14FF6FD76314044F0010631439F
:1010B00005E04FF6F576314044F0010631430283F6
:1010C0000184F0BD002C01400034014000040040C8
:1010D00000080040000C0040F0B50C461546002208
:1010E00000210026078C4FF6EF7C07EA0C070784E7
:1010F000028B018C4FF6FF7707EA041640F6FF4794
:101100003A404FF6FF7707EA03373A434FF6FF7747
:1011100007EA05273A43114FB8420ED0104FB842A4
:101120000BD0B0F1804F08D00E4FB84205D00E4F13
:10113000B84202D00D4FB84206D14FF6DF773940A2
:1011400046F01007394305E04FF65F77394044F029
:101150001007394302830184F0BD0000002C0140D8
:10116000003401400004004000080040000C004032
:10117000F0B50C461546002200210026078C4FF6DC
:10118000FF6C07EA0C070784828B018C4FF6FF7710
:1011900007EA04264FF60C773A404FF6FF7707EA46
:1011A00003172F433A43114FB8420ED0104FB842A5
:1011B0000BD0B0F1804F08D00E4FB84205D00E4F83
:1011C000B84202D00D4FB84206D14FF6FF57394012
:1011D00046F48077394305E04FF2FF57394044F435
:1011E0008077394382830184F0BD0000002C0140E8
:1011F000003401400004004000080040000C0040A2
:10120000F0B50C461546002200210026078C4EF64C
:10121000FF7C07EA0C070784828B018C4FF6FF776F
:1012200007EA043640F6FF473A404FF6FF7707EAF1
:1012300005273A434FF6FF7707EA03373A43114F42
:10124000B8420ED0104FB8420BD0B0F1804F08D04A
:101250000E4FB84205D00E4FB84202D00D4FB842E3
:1012600006D14DF6FF77394046F48057394305E003
:1012700047F6FF57394044F480573943828301844D
:10128000F0BD0000002C014000340140000400408B
:1012900000080040000C00401FB504460121C802B0
:1012A000FFF77AFD04EB84000121C1EB400080B21E
:1012B000ADF8080041F61F40ADF804000020ADF87D
:1012C0000A00ADF806008DF80C0001A90F4800F0E7
:1012D00063FB012211460D4800F0E7F919208DF853
:1012E000000000208DF801008DF8020001208DF82B
:1012F00003006846FFF7B2FC0121044800F032F910
:101300000121024800F034F91FBD0000002C01400B
:1013100010B50121134800F058F918B10121114806
:1013200000F023F9104800680A300F49086002F005
:1013300001FA0220FFF7BAFD404200B20B49888053
:101340000420FFF7B3FD0949C88001F03BFF01F01D
:1013500051FE02F039F802F0FFF9044801F0DAFF1B
:1013600010BD0000002C0140180000207401002076
:1013700000B587B001210846FFF7FEFC0320ADF859
:10138000180004208DF81B0006A91B48FFF766FB18
:1013900003A800F053FB0020ADF80C004FF6FF70DF
:1013A000ADF810000020ADF81200ADF80E0003A952
:1013B0004FF0804000F0F0FA00231A4603214FF06E
:1013C000804000F0E1F8684600F066F90A20ADF8C8
:1013D00008006946400700F009F90121880700F07C
:1013E000C1F800214FF0804000F0A7FA01218807E2
:1013F00000F0BEF807B000BD000801404FF080408B
:10140000008A4FF08040008A20F001004FF08041B8
:101410000882704700B589B001210220FFF7ACFCBB
:1014200018208DF82300C020ADF8200003208DF88F
:10143000220008A92048FFF711FB0320ADF8200087
:1014400008A91E48FFF70AFB0020ADF81A00ADF806
:10145000160040F2E730ADF818004720ADF8140050
:1014600000208DF81C0005A9154800F095FA6020B1
:10147000ADF804000120ADF806000020ADF80C0026
:10148000ADF80A0001A90E4800F018F901A90C48AE
:1014900000F060F901A90A4800F0AEF901A9084876
:1014A00000F004FA0821064800F0F6F9012104488A
:1014B00000F05EF809B000BD00080140000C0140DA
:1014C0000004004000B587B001210420FFF754FC60
:1014D000C020ADF8180004208DF81B0006A919489B
:1014E000FFF7BCFA03A800F0A9FA0020ADF80C0041
:1014F0004FF6FF70ADF810000020ADF8120003A900
:10150000114800F049FA00231A4603210E4800F062
:101510003BF8684600F0C0F80A20ADF808006946BC
:10152000094800F063F80121074800F01BF800218A
:10153000054800F002FA0121034800F019F807B04D
:1015400000BD0000000C0140000800400448008875
:101550000348008820F0010001490880704700001E
:1015600010080040CA4302827047CA430282704793
:1015700021B1028842F00102028004E002884FF6A5
:10158000FE731A4002807047F0B50C4615461E46A1
:101590000021002200230189028B038C4FF6F8778B
:1015A000394021434FF6FC473A4040F201173A4395
:1015B0004FF6DD773B404FF6FF7707EA06172F43DC
:1015C0003B43018102830384F0BD30B50246002015
:1015D00000230024158A05EA0103958905EA010420
:1015E00013B10CB1012000E0002030BD70B50546FC
:1015F0000C46244885420ED0234885420BD0B5F1D5
:10160000804F08D02148854205D02148854202D02C
:101610002048854200D100E000BF208850B92389CE
:10162000A28861882846FFF717FDE188284600F068
:1016300086F925E0208804280AD12389A2886188B8
:101640002846FFF749FDE188284600F081F917E0B8
:10165000208808280AD12389A28861882846FFF7B4
:1016600087FDE188284600F080F909E02389A288F7
:1016700061882846FFF7C4FDE188284600F07EF91E
:1016800070BD0000002C0140003401400004004007
:1016900000080040000C0040002101804180012131
:1016A00081800021C180018170471AB183890B4379
:1016B000838102E083898B438381704770B5002466
:1016C00000220023058C4FF6FE7635400584028CFF
:1016D0008388048B4FF68F752C40B51E2C400D88E7
:1016E0002C43751E2A400D892A434D882A43144DE8
:1016F000A8420BD0134DA84208D0134DA84205D0E4
:10170000124DA84202D0124DA84213D14FF6F775E0
:101710002A404D892A434FF6FB752A408D882A437B
:101720004FF6FF652B404FF6FF552B408D892B431D
:10173000CD892B4383800483CD888586028470BD48
:10174000002C0140003401400040014000440140B1
:101750000048014070B5002400220023058C4FF69C
:10176000EF7635400584028C8388048B48F6FF753C
:101770002C404FF6FF452C400D884FF6FF7606EAC9
:1017800005252C434FF6DF752A400D8906EA05151D
:101790002A434D8806EA05152A43154DA84202D072
:1017A000144DA8421DD14FF67F752A404D894FF642
:1017B000FF7606EA05152A434FF6BF752A408D8845
:1017C00006EA05152A434FF6FF352B404FF2FF7509
:1017D0002B408D8906EA85052B43CD8906EA8505D0
:1017E0002B4383800483CD880587028470BD00006D
:1017F000002C01400034014070B500240022002379
:10180000058C4FF6FF6635400584028C8388848BF7
:101810004FF68F752C404FF6FC752C400D882C43ED
:101820004FF6FF552A400D894FF6FF7606EA05254B
:101830002A434D8806EA05252A43154DA84202D0C1
:10184000144DA8421DD14FF2FF752A404D894FF625
:10185000FF7606EA05252A434FF6FF352A408D8894
:1018600006EA05252A434EF6FF752B404DF6FF7517
:101870002B408D8906EA05152B43CD8906EA05150F
:101880002B4383808483CD888587028470BD0000CC
:10189000002C0140003401400A460021818B4FF6A4
:1018A000F7731940114381837047000070B500221F
:1018B00000230024058C4EF6FF7635400584038C0A
:1018C0008488828B48F6FF752A404FF6FF452A40F0
:1018D0000D884FF6FF7606EA05252A434DF6FF757B
:1018E0002B400D8906EA05352B434D8806EA053560
:1018F0002B430B4DA84202D00A4DA84208D14BF60B
:10190000FF752C408D894FF6FF7606EA85152C432E
:1019100084808283CD88A0F84050038470BD00008D
:10192000002C0140003401408186704701877047D8
:1019300081877047A0F84010704781847047028B00
:101940004FF6F3731A400283028B0A4302837047F7
:10195000028B4FF2FF331A400283028B4FF6FF7364
:1019600003EA01231A4302837047828B4FF6F37315
:101970001A408283828B0A4382837047828B4FF2A4
:10198000FF331A408283828B4FF6FF7303EA0123F1
:101990001A43828370470000002202881D4B984240
:1019A0000ED01D4B98420BD0B0F1804F08D01B4B8E
:1019B000984205D01A4B984202D01A4B984204D153
:1019C0004FF68F731A404B881A43174B984207D033
:1019D000164B984204D04FF6FF431A40CB881A4367
:1019E00002808B8883850B8803850A4B98420BD035
:1019F000094B984208D00E4B984205D00D4B9842A7
:101A000002D00D4B984201D10B7A038601238382C9
:101A100070470000002C01400034014000040040E9
:101A200000080040000C004000100040001400407E
:101A30000040014000440140004801404FF6FF7162
:101A4000818000210180C1804180017270470000C7
:101A500010B586B0044601218803FFF79DF94FF4C5
:101A60000070ADF8140003208DF8160018208DF8D2
:101A7000170005A91C48FEF7F1FF4FF48060ADF890
:101A8000140048208DF8170005A91748FEF7E6FF57
:101A900025208DF8000001208DF8010000208DF830
:101AA000020001208DF803006846FFF7D7F8019483
:101AB0000020ADF80800ADF80A00ADF80C00ADF854
:101AC00010000C20ADF80E0001A9084800F04AFAF9
:101AD000012240F22551054800F01EFA0121034879
:101AE00000F0D7F906B010BD0008014000380140F1
:101AF00010B586B0044601214804FFF73DF90121E5
:101B00000420FFF749F90420ADF8140003208DF8F4
:101B1000160018208DF8170005A91C48FEF79EFF37
:101B20000820ADF8140028208DF8170005A91748E3
:101B3000FEF794FF26208DF8000002208DF80100AA
:101B400000208DF8020001208DF803006846FFF7A1
:101B500085F801940020ADF80800ADF80A00ADF852
:101B60000C00ADF810000C20ADF80E0001A90848DB
:101B700000F0F8F9012240F22551054800F0CCF9B7
:101B80000121034800F085F906B010BD00080140AE
:101B90000044004010B586B0044601218804FFF7D8
:101BA000EBF84FF48060ADF8140003208DF81600B8
:101BB00018208DF8170005A91C48FEF74FFF4FF4B9
:101BC0000060ADF8140048208DF8170005A91748EB
:101BD000FEF744FF27208DF8000003208DF8010058
:101BE00000208DF8020001208DF803006846FFF701
:101BF00035F801940020ADF80800ADF80A00ADF802
:101C00000C00ADF810000C20ADF80E0001A908483A
:101C100000F0A8F9012240F22551054800F07CF9B6
:101C20000121034800F035F906B010BD000C014059
:101C30000048004010B508211C4800F036F930B1CA
:101C40001A4800F0FBF90821184800F00AF90221AF
:101C5000164800F02AF930B1144800F0EFF90221DB
:101C6000124800F0FEF80421104800F01EF930B1CF
:101C70000E4800F0E3F904210C4800F0F2F840F2BD
:101C800025510A4800F01EF970B1084800F0D6F955
:101C9000C4B22146064801F045F90649086040F201
:101CA0002551024800F0E6F810BD00000038014060
:101CB000EC0100204401002010B50821624800F02A
:101CC000F4F830B1604800F0B9F908215E4800F03E
:101CD000C8F802215C4800F0E8F830B15A4800F03A
:101CE000ADF90221584800F0BCF80421564800F034
:101CF000DCF830B1544800F0A1F90421524800F05A
:101D0000B0F840F22551504800F0DCF8002834D0FB
:101D10004D4800F093F9C1B24C4802780078401C5D
:101D20004A4B18704A48815418460078012807D158
:101D300047480078552803D000201946087010BD88
:101D4000424800780A2819DC40480078401E404983
:101D5000085C4049098808443E4908803B480078AF
:101D60000A286ED108460078098840EA212008B97F
:101D7000012000E000203749088062E03348007805
:101D80000A285EDD0020314908705520314908805D
:101D90002F484078512804D052281CD053284ED1C7
:101DA00033E02B48801CFEF73CFE2B490880284876
:101DB000001DFEF736FE284948802548801DFEF7A5
:101DC00030FE254988802548008840F4704000B2E4
:101DD0002249088034E01E48801CFEF722FE1E497E
:101DE000C8801B48001DFEF71CFE1B4908811848CF
:101DF000801DFEF716FE184948811848B0F900000A
:101E000040F47060154908801AE01148801CFEF704
:101E100008FE114988810E48001DFEF702FE0E499A
:101E2000C8810B48801DFEF7FCFD0B4908820B485A
:101E3000B0F9000040F0F0000849088000E000BF61
:101E400000BF00BF7BE70000004400404C010020C1
:101E5000EF0300204E010020AC01002048010020CB
:101E6000704701F40072B2F5007F00D100BFCA4391
:101E70000280704710B50022002340F66A14A14288
:101E800000D100BF0A1201249440A3B2DC430480B5
:101E900010BD21B1828942F40052828104E082891E
:101EA0004DF6FF731A408281704702460020B1F55B
:101EB000007F00D100BF13880B400BB1012000E070
:101EC0000020704770B50246002400230025002042
:101ED00040F66A16B14200D100BFC1F3421501F0CD
:101EE0001F03012606FA03F3012D02D19689334020
:101EF00006E0022D02D1168A334001E0968A334073
:101F00000C12012606FA04F41688344013B10CB101
:101F1000012000E0002070BDF0B50346002400263B
:101F20000025002040F66A17B94200D100BF1846CC
:101F3000C1F3421401F01F06012707FA06F5012C30
:101F400001D10C3004E0022C01D1103000E014303B
:101F50001AB107682F43076002E00768AF430760C4
:101F6000F0BD00002DE9F04786B005460E4600247E
:101F7000A24600BFA1460027B08900B100BF2F468E
:101F80002C8A4CF6FF700440F08804432C82AC8904
:101F90004EF6F3100440B088318908437189084334
:101FA0000443AC81AC8A4FF6FF400440B08904433F
:101FB000AC8201A8FEF710FF1F48874202D1DDF86E
:101FC00010A001E0DDF80CA0A88900F4004040B1A9
:101FD0000AEBCA0000EB0A1031684900B0FBF1F8C7
:101FE00007E00AEBCA0000EB0A1031688900B0FB79
:101FF000F1F86420B8FBF0F004012009642101FB32
:102000001089A88900F4004040B1322000EBC900DB
:10201000B0FBF1F000F00700044308E0322000EBD1
:1020200009106421B0FBF1F000F00F0004432C8193
:1020300006B0BDE8F08700000038014001468888FE
:10204000C0F308007047C1F308028280704700BFE8
:10205000FEE702E008C8121F08C1002AFAD1704743
:102060007047002001E001C1121F002AFBD1704718
:1020700000B587B001214802FEF78EFE4FF4004004
:10208000FEF76EFE1A48FEF7E1FB00208DF81B00FC
:102090002020ADF8180006A91648FEF7DFFC002046
:1020A00001908DF808008DF8090004904FF460202D
:1020B000039001208DF8140001A90D48FEF716FCCD
:1020C00001210B48FEF7B6FB0948FEF793FC00BF61
:1020D0000748FEF700FC0028FAD10548FEF79AFCF5
:1020E00000BF0348FEF7E0FB0028FAD107B000BDAF
:1020F00000240140000C014008B501210846FEF70C
:102100004BFE01212248FEF735FD01211C20FEF780
:1021100043FE4FF4A06101F007021E4B18684FF612
:10212000FF0318401C4B034343EA0220194B18607D
:1021300000BF00F013F901F0EBFA00F051FC174872
:102140004023802200210090084600F0E9FC00F0C6
:1021500061FEFFF78DFF00F051FA00F0B7F94FF480
:10216000E120FFF775FC4FF4E130FFF7C1FC4FF4BD
:10217000E130FFF70FFD0A20FFF78EF800F0F4FFC3
:102180004FF47A7000F00CF9FEF7A0FD08BD0000D6
:10219000000230000CED00E00000FA056354000876
:1021A00000B50346184600F0CDF90246184600F087
:1021B000ABF9104000BD000000B50346184600F022
:1021C000C1F90549098823EA0101002901DD01213E
:1021D00000E00021084000BD5401002070B5024617
:1021E0000B460020114669B1002409E011F8015B9B
:1021F0004540EDB2044E36F8155085EA2020641CA7
:102200009C42F3D370BD0000F838000870B5024658
:102210000B460020114649B1002405E011F8015B8E
:102220004540034E705D641C9C42F7D370BD0000B6
:10223000440000202DE9F84F824600240AF10809E5
:102240009AF800B07AE019F80400702833D0B0286A
:102250006ED13D480078702802D1201DC4B229E01B
:10226000611C09EB0100FEF7DCFB0090FEF71EF994
:1022700007460022354BFEF7A1F80546FEF7C8F9E0
:1022800033490860A01CC4B2611C09EB0100FEF7D1
:10229000C8FB0090FEF70AF9074600222B4BFEF719
:1022A0008DF80546FEF7B4F929494860A01CC4B270
:1022B000012008723FE0611C09EB0100FEF7B1FB51
:1022C0000090FEF7F3F807460022224BFEF776F85F
:1022D0000546FEF79DF920490860A01CC4B2611CA8
:1022E00009EB0100FEF79DFB0090FEF7DFF80746C3
:1022F0000022184BFEF762F80546FEF789F91649E9
:102300004860A01CC4B2611C09EB0100FEF789FB08
:102310000090FEF7CBF8054600220E4BFEF74EF874
:102320000746FEF775F90C498860A01CC4B202E0AC
:10233000601CC4B200BF00BF601CC4B25C4582DB3D
:102340000120BDE8F88F00005901002000408F40B7
:10235000A001002000002440C001002010B56FF053
:102360000400FEF733FE0A4800680A49B0FBF1F0AA
:10237000094908700846007800EB4001C1EBC01025
:102380004FF6FF7101EAC0000449088010BD00004B
:102390000000002000127A006E0100207001002071
:1023A0000146114A12884A434FF0E0235A61002245
:1023B0009A611A46126942F001021A6100BF4FF099
:1023C000E022106900F001021AB100F48032002A04
:1023D000F5D04FF0E022126922F001024FF0E02325
:1023E0001A6100229A617047700100200146114A6B
:1023F00012784A434FF0E0235A6100229A611A464C
:10240000126942F001021A6100BF4FF0E022106928
:1024100000F001021AB100F48032002AF5D04FF02A
:10242000E022126922F001024FF0E0231A6100223B
:102430009A6170476E01002001460C48007838B15F
:102440000B4800680B4A10600020084A10700AE030
:1024500007480068074A1268801A884203D301209F
:10246000024A107070470020FCE7000025000020A1
:10247000180000202800002001461048007838B1DC
:102480000F4800680F4A106000200C4A107011E0DD
:102490000B4800680B4A1268801A88420AD3012050
:1024A000064A10700848007808B9012000E00020B2
:1024B000054A107004480078704700001D00002095
:1024C00018000020200000202400002010B5FEF796
:1024D0004FFFFEF7F7FF10BD10B5072301220521BE
:1024E0000848FEF72BFA01210648FEF788FA00BFDC
:1024F00002210448FEF7E6F90028F9D00148FEF76A
:10250000DDF910BD0024014001460548008821EA9C
:102510000000002801DD012070470020FCE70000DA
:1025200052010020014605480078702804D1152981
:1025300002DA0348405C70470020FCE759010020A4
:10254000FA070020014606480088064A12885040D3
:102550000840002801DD012070470020FCE7000052
:10256000520100205401002070B505460C46B4F518
:102570007A7F01D2002070BD2846FFF711FE18B106
:1025800017480068174908601748007850B1284676
:10259000FFF712FE30B91448007808B90120EAE7C5
:1025A0000020E8E70020104908702846FFF7ACFF3C
:1025B00020B90B4800680B4908600DE00848006826
:1025C00008490968401AA04206D90548006805492B
:1025D000086001200449087003480078CBE7000038
:1025E000180000202C00002030000020FFF784FDA0
:1025F00000F036FC01E000F00BFBFCE708B5102012
:10260000ADF800008DF8030003208DF80200694644
:102610000748FEF723FA0420ADF800006946054894
:10262000FEF71CFAFEF7F6FE0120FEF7F1FA08BDF0
:1026300000080140000C014070B504460D46002C16
:1026400008DBA1B21248FFF76FF900211048FFF72D
:102650006DF908E000210E48FFF766F9604281B28B
:102660000B48FFF763F9002D08DB00210848FFF74E
:102670005FF9A9B20648FFF75DF908E0684281B248
:102680000348FFF755F900210148FFF753F970BDE2
:102690000004004010B50246012000E050430B1E2C
:1026A000A1F10104E1B2F9D110BD00002DE9F84F0C
:1026B00080460F4616461C46BA462046E31704EBF2
:1026C0005373DB1021464FEAE47C04EB5C7C4FEA59
:1026D000EC0CA4EBCC0CBCF1000F02D04FF0010CC1
:1026E00001E04FF0000C6344224604EBD27C4FEA39
:1026F0006C0C03FB0CF303F0FF0BA6F12000C6B239
:1027000000254EE00C2C07D106EB4600274901EBD3
:102710008000405D009013E0102C05D1244800EBB0
:102720000610405D00900BE0182C07D106EBC600A8
:10273000204901EB8000405D009001E0BDE8F88F8A
:102740004FF0000927E0009800F0800028B13946DA
:1027500040460A9A00F028FA09E00A9808B90120D0
:1027600000E0002002463946404600F01DFA00987D
:102770004006000E0090781CC7B2A7EB0A00A042EA
:1027800005D1574608F1010000F0FF0806E009F105
:10279000010000F0FF09B9F1080FD4DB00BF681C8D
:1027A000C5B25D45AEDB00BFC8E70000F83A0008DF
:1027B0006C3F00085C4500082DE9F84F05468B4644
:1027C00016461F46384607EBD071C1F34708002E66
:1027D0000ADA01203B462D22594600902846FFF791
:1027E00065FF05EB0800C5B2301E01DB014600E0C5
:1027F00041428946012402E004EB840044000A209F
:10280000B9FBF0F0A042F7D217E0B9FBF4F030309A
:1028100000F0FF0A01203B465246594600902846E8
:10282000FFF744FFAAF1300004FB10990A20B4FB23
:10283000F0F405EB0800C5B200BF002CE5D1AA46B4
:1028400009E0012000900AF0FF003B462022594693
:10285000FFF72CFFC244074800788245F1DB002EC9
:1028600001DD002000E04046284402490870BDE830
:10287000F88F0000500100202DE9FF4F89B0044679
:102880009A46DDF858B058460BEBD071C1F34709B2
:1028900000210B98FDF7D8FE0AD201205B462D22BD
:1028A000009020460A99FFF701FF04EB0900C4B22B
:1028B0000B98FDF76AFE21F000410746FDF74CFE3C
:1028C000054651460A20FFF7E5FE0646012602E0CE
:1028D00006EB860046000A20B5FBF0F0B042F7D2C6
:1028E00016E0B5FBF6F03030C7B201205B463A4641
:1028F000009020460A99FFF7D9FEA7F1300006FBA9
:1029000010550A20B6FBF0F604EB0900C4B200BF74
:10291000002EE6D101205B462E22009020460A9927
:10292000FFF7C4FE04EB0900C4B20B98FDF72DFEBF
:1029300021F000410746FDF70FFE054601272DE077
:1029400005EB85004500F9B20A20FFF7A3FE0190D0
:10295000FDF7BDFDCDE904010B98FDF716FE21F052
:102960000041CDE90201DDE90423FDF7B5FCCDE925
:102970000601FDF7F1FD401B303000F0FF0801209B
:102980005B464246009020460A99FFF78FFEA8F169
:102990003000054404EB0900C4B27F1C5745CFDD6D
:1029A000274608E001200090F8B25B4620220A99F1
:1029B000FFF77CFE4F44094800788742F2DB002194
:1029C0000B98FDF74BFE01D2002000E04846204462
:1029D000024908700DB0BDE8F08F000051010020E1
:1029E00008B501210C20FEF7D7F94FF48070ADF83F
:1029F000000010208DF8030003208DF802006946C6
:102A00004548FEF72BF84FF480714348FEF7FAF87B
:102A10004FF480714048FEF7F7F84FF47040ADF87E
:102A2000000010208DF8030003208DF80200694695
:102A30003A48FEF713F84FF470413848FEF7E2F8D1
:102A40004FF470413548FEF7DFF80021AE20FEF765
:102A500055F90021D520FEF751F900215020FEF74D
:102A60004DF90021A820FEF749F900213F20FEF78B
:102A700045F90021D320FEF741F900210846FEF771
:102A80003DF900214020FEF739F900218D20FEF7A5
:102A900035F900211420FEF731F900212020FEF73E
:102AA0002DF900210220FEF729F90021A120FEF7CF
:102AB00025F90021C020FEF721F90021DA20FEF7D8
:102AC0001DF900211220FEF719F900218120FEF7DF
:102AD00015F90021EF20FEF711F90021D920FEF7AA
:102AE0000DF90021F120FEF709F90021DB20FEF7A6
:102AF00005F900213020FEF701F90021A420FEF79E
:102B0000FDF80021A620FEF7F9F80021AF20FEF71E
:102B1000F5F8FEF7DBF808BD00080140000C0140A5
:102B20002DE9FE4F04468846164699462546C2467C
:102B3000A019C0B2029006FB09F0C11700EB517159
:102B4000C1F3CF010191002728E00C9810F807B0DD
:102B5000002000901EE00BF0800028B101225146B9
:102B6000284600F021F804E000225146284600F0F3
:102B70001BF84FEA4B604FEA106B681CC5B2029815
:102B8000854204D125460AF1010000F0FF0A0098B1
:102B9000401C009000980828DDDB7F1C01988742CC
:102BA000D3DBBDE8FE8F0000F0B5144600267F2879
:102BB00001DC3F2900DDF0BD0B46CF1701EB577755
:102BC000FF10C7F10707FAB2CF1701EB5777FF10D5
:102BD000A1EBC707FDB2C5F107070123BB40DEB279
:102BE0004CB10A4B03EBC0039B5C3343074F07EB2D
:102BF000C007BB5408E0054B03EBC0039B5CB34329
:102C0000024F07EBC007BB5400BFD4E7FA03002014
:102C100008B55748007840B156480C231A460021A1
:102C200000905820FFF77CFF05E00C2352A2002102
:102C3000582000F0BFF85148007805283DD2DFE861
:102C400000F0030C151E27004D480C23182200210C
:102C500000906820FFF764FF2FE04A480C231822F9
:102C6000002100906820FFF75BFF26E046480C2318
:102C70001822002100906820FFF752FF1DE0434812
:102C80000C231822002100906820FFF749FF14E070
:102C90004FF4FA70FFF7F0FB40B13D480C231822C7
:102CA000002100906820FFF73BFF05E00C2339A2CC
:102CB0000021682000F07EF800BF00BF0C200090CB
:102CC00036480123242102686820FFF7D5FD0C2037
:102CD000009032480123342142686820FFF7CCFD80
:102CE0002F48B0F904200C2328210020FFF764FDB1
:102CF0002B48B0F906200C2334210020FFF75CFD9F
:102D000000202649086048600320087225480078A2
:102D1000402806D070280DD0F02814D0FF2822D1EA
:102D20001AE021480C231822002100900846FFF7E2
:102D3000F7FE18E01D480C231822002100900846D9
:102D4000FFF7EEFE0FE01A480C2318220021009036
:102D50000846FFF7E5FE06E00C230EA20021084618
:102D600000F028F800BF00BF00F054F808BD0000D4
:102D70001C000020515400082020000014000020F6
:102D80003153000855530008795300089D5300083B
:102D9000C15300082020202000000000A0010020D6
:102DA000740100205901002009540008E55300086F
:102DB0002D540008F8B506460F4615461C4621E07E
:102DC00004EBD4714910C1F18001B14202DA00264E
:102DD0003819C7B2C4F14000B84204DA00200646F0
:102DE0000746FDF773FF012000902A7823463946F5
:102DF0003046FFF75BFC204604EBD07106EB610127
:102E0000CEB26D1C28787E2802DC28782028D7DAFC
:102E1000F8BD000030B500241CE004F1B001C8B2D8
:102E20000021FDF76BFF00210846FDF767FF002139
:102E30001020FDF763FF002508E0084901EBC501FC
:102E4000085D0121FDF75AFF681CC5B2802DF4DB37
:102E5000601CC4B2082CE0DB30BD0000FA03002087
:102E600028482949086000208880C880886000219F
:102E70002548C160016100202349486100212248A2
:102E80008161C16100202049086200211E48416221
:102E900081621E481E4908601E4848601E488860BE
:102EA0005020C88440F2E73088840020C8600021A8
:102EB00017480161002016494861002114488161CA
:102EC00000201349C8610021114801620020104907
:102ED000088500210E48418500201049486008609F
:102EE0000F49088048808880C88000210C480181F3
:102EF000418100200A49888100210948C18101825D
:102F0000704700009A994941740100200000D041A7
:102F1000C0010020000020400000A040A0010020CF
:102F2000AC01002070B504460D4631480188008888
:102F3000401C2F4A1080201D45541046008802284E
:102F40000CD12079FE2802D16079EF284ED060792B
:102F50002071012026490880801E70BD2448008809
:102F600003280DD122480088401E211D085C2070D6
:102F70002078FB283ADD00201D490880C01EECE7C0
:102F80001B480088042811D119480088401E211DC3
:102F9000085C60800321201DFFF738F961888842B2
:102FA00024D0002012490880801ED6E72078801D9A
:102FB0000F490988884219DC0D490988891E221D9C
:102FC0008818FDF73CFD60800020094908802178C1
:102FD00004F10800FFF702F96188884202D04FF03F
:102FE000FF30BAE72046FFF725F9B6E70020B4E73F
:102FF0004A0100202DE9F0475348007870287DD120
:103000000820FFF78FFAC0F18004201E01DB014683
:1030100000E04142022901DA002100E021460C468D
:10302000002C07DB2046FDF738FA05464749FDF737
:10303000E3F806E02046FDF730FA05464449FDF77F
:10304000DBF844490860201E01DB014600E04142F4
:1030500032290EDA3F490868FDF797FA07464FF024
:1030600033323D4BFDF738F90546FDF7D1FA3949C2
:1030700008600520FFF756FAC0F18009B9F1000099
:1030800001DB014600E04142022901DA002100E0B3
:10309000494689464846FDF700FA05462F49FDF79F
:1030A000ABF82C4948604FF40060FFF72DFAD8B117
:1030B00028490868FDF769FA054600224FF0804369
:1030C000FDF70AF90746FDF7A3FA224908604868A8
:1030D000FDF75BFA05460022214BFDF7FDF8074698
:1030E000FDF796FA1B4948604FF48060FFF70CFA31
:1030F00018B1002017490860486000E003E0002094
:10310000144908721DE010480078FF280AD11148C0
:10311000007A012815D000200E490860486002207E
:1031200008720EE04FF4FA614FF48070FFF71CFA5A
:1031300038B10C48007808B9012000E000200949A6
:103140000870BDE8F087000059010020A69B443BB1
:10315000A69BC43AA00100203333F33F0AD7A33B18
:10316000000004401C00002008B54FF40040ADF8FA
:10317000000048208DF8030069460E48FDF76EFCFC
:103180003820ADF8000010208DF8030003208DF8E2
:10319000020069460848FDF761FC01200749086004
:1031A0000749C1F894010549091D08600A20FFF785
:1031B0001DF908BD00080140000C01408C8121422E
:1031C0000080214210B500F067F800202B4908600C
:1031D0000A20FFF70BF900243CE0294800788442DC
:1031E00000DD39E02749085D00F062F826490855FE
:1031F000012C2ED108464078412806D073280BD0E8
:10320000792810D0F3281CD114E040201F49087001
:1032100005201B4908701BE070201C49087009201C
:103220001749087014E070201849087015201449D7
:1032300008700DE0F0201549087009201049087049
:1032400006E0FF201149087002200D49087000BFF8
:1032500000BF641C152CC0DB00BF012007490860BB
:103260000B4800880B4908800748C078064909794F
:1032700040EA01200649088010BD000090812142EB
:103280005801002087580008FA0700205901002043
:103290005201002054010020002003E00021034AD5
:1032A0001154401C1528F9DB70470000FA07002074
:1032B00070B505460026002421E00120A0402840EA
:1032C00018B101201149086002E000200F49086090
:1032D00000200E49083108600A20FFF787F80C48E3
:1032E000D0F83C0118B10120A0403043C6B2012003
:1032F0000649083108600A20FFF778F8641C082C9A
:10330000DBDB012001490860304670BD8C81214221
:10331000000021422DE9FE430446FE208DF8000006
:10332000EF208DF8010005208DF8020000208DF8B7
:103330000300C0208DF80400A188ADF80510E188D5
:10334000ADF807100020ADF809000B26324669469B
:103350001548FCF7E7FE03211348FEF757FF074621
:1033600005211148001DFEF739FF804639460E48F9
:10337000C01C00F026F841460B48093000F018F850
:1033800000250CE00848415D0848FEF75CFE00BFE0
:1033900080210648FEF789FD0028F9D06D1CB54252
:1033A000F0DBBDE8FE830000F002002000380140A1
:1033B00008B500919DF8002002709DF80120427030
:1033C00008BD0170704700002DE9FC5FC24800781D
:1033D00038B100210846FFF72FF90020FDF718FC4F
:1033E00078E10120FDF714FCBC490868FDF7CDF831
:1033F00007464FF03332BA4BFDF7F2F803D2B94823
:10340000B64908600CE0B5490868FDF7BEF8074604
:10341000B54AB64BFDF7CCF802D2B548AF490860C3
:10342000AE4948684FF08041FDF718F904D24FF0DB
:103430008040AA4948600AE0A84948684FF04041E6
:10344000FDF702F903D24FF04040A4494860A34978
:103450004868A849FCF7D0FE80464FF08041FCF751
:10346000FDFE07469D4801683846FCF7C2FE04464B
:103470009A4948689F49FCF7BFFE80464FF080415B
:10348000FCF7ECFE0746954801683846FCF75CFE01
:10349000054699492046FCF7AFFE98490090FCF795
:1034A000ABFE0190FDF771F88246954A954BFCF70B
:1034B00085FF0746FDF731F806B28F492846FCF72D
:1034C0009BFE8E490090FCF797FE0190FDF75DF89A
:1034D00082468B4A8B4BFCF771FF0746FDF71DF8C0
:1034E0000FFA80F98849B1F90410701AFCF7D5FF7A
:1034F0008649C8608449B1F90610A9EB0100FCF7C0
:10350000CCFF824908610A46D168D069FCF71CFEED
:103510007E49C8610A461169106AFCF715FE7B49AD
:1035200008620A465169D068FCF760FE8346774816
:1035300081685846FCF760FE8046744AD16950683D
:10354000FCF75AFE8346714AD1681068FCF754FEB6
:1035500059460190FCF7F8FD82464146FCF7F4FD20
:103560000746FCF7C1FF00B2684908850A46916921
:103570001069FCF73BFE8346644881685846FCF7B7
:103580003BFE8046614A116A5068FCF735FE83466F
:103590005E4A11691068FCF72FFE59460190FCF74E
:1035A000D3FD82464146FCF7CFFD0746FCF79CFF62
:1035B00001B256484185C0685449486108460169CE
:1035C0008161B0F928005149B1F92410884204DD25
:1035D0004E48808C4D49088510E04C48B0F92800D1
:1035E0004A49B1F92610884208DA4848B0F928005B
:1035F000002803DD4548C08C444908854348B0F99C
:103600002A004249B1F92410884203DD3F48818CE9
:1036100041850FE03D48B0F92A003C49B1F9261038
:10362000884207DA3948B0F92A00002802DD374815
:10363000C18C41853548B0F928003449B1F92410CE
:103640004942884206DA3148808C404200B22F4914
:10365000088513E02D48B0F928002C49B1F926104F
:10366000494288420ADD2948B0F92800002805DAD5
:103670002648C08C404200B2244908852348B0F94E
:103680002A002249B1F924104942884206DA1F482B
:10369000808C404201B21D48418513E01B48B0F9BF
:1036A0002A001A49B1F92610494288420ADD174812
:1036B000B0F92A00002805DA1448C08C404201B253
:1036C00012484185114AB2F92A10B2F92800FEF7D2
:1036D000B3FF00BFBDE8FC9F1C000020A00100203C
:1036E0003333F33F9A99993F0AD7A3703D0AE7BF56
:1036F000EC5138BF3BDF4F3E0AD7233C0000C344A8
:1037000080A3EA455723CA3F74010020C00100206E
:1037100008B54FF40050ADF8000003208DF802000A
:1037200010208DF8030069460148FDF797F908BDA0
:103730000010014000B54FF4FA70FEF77DFE38B17D
:103740000448006808B9012000E000200149086031
:1037500000BD0000B40122422DE9F047594800881D
:10376000401C80B257490880642808DCFEF7B4FE8C
:1037700055490968084454490860BDE8F087524833
:103780000068FCF7A4FE8046504A514BFCF7A4FDAC
:10379000064600224F4BFCF711FE0446FCF738FFAB
:1037A00082464D4801685046FCF720FD0646FCF76E
:1037B000ECFE0446494A4A4BFCF712FF0DD346493A
:1037C00008685146FCF712FD0646FCF7DEFE04468B
:1037D000424A434BFCF704FF02D23F48C0F800A026
:1037E0003D490868FCF7D1FE04464FF033323D4BAB
:1037F000FCF7DEFE03D804203B4908705BE0364945
:103800000868FCF7C2FE04464FF03332374BFCF732
:10381000E7FE03D20020344908704CE02E490868C6
:10382000FCF7B3FE04464FF03332314BFCF7D8FEC1
:103830000ED229490868FCF7A8FE04464FF033323F
:103840002A4BFCF7B5FE03D801202749087032E067
:1038500021490868FCF799FE04464FF03332254BA6
:10386000FCF7BEFE0ED21C490868FCF78EFE04462B
:103870004FF033321E4BFCF79BFE03D802201A494F
:10388000087018E014490868FCF77FFE04464FF002
:103890003332144BFCF7A4FE0DD20F490868FCF735
:1038A00074FE04464FF03332124BFCF781FE02D80F
:1038B00003200D4908700020024908800249086071
:1038C00000BF5AE7400000203C0000207E8CB96B0E
:1038D00009992C4000001941740100209A99999986
:1038E0009999A93F333323401400002033B3274074
:1038F0003333264033B324400000C1C081C14001AE
:1039000001C3C003800241C201C6C006800741C78F
:103910000005C1C581C4400401CCC00C800D41CD5F
:10392000000FC1CF81CE400E000AC1CA81CB400B2F
:1039300001C9C009800841C801D8C018801941D9FF
:10394000001BC1DB81DA401A001EC1DE81DF401F8F
:1039500001DDC01D801C41DC0014C1D481D540159F
:1039600001D7C017801641D601D2C012801341D3AF
:103970000011C1D181D0401001F0C030803141F13F
:103980000033C1F381F240320036C1F681F740378F
:1039900001F5C035803441F4003CC1FC81FD403D5F
:1039A00001FFC03F803E41FE01FAC03A803B41FB2F
:1039B0000039C1F981F840380028C1E881E940297F
:1039C00001EBC02B802A41EA01EEC02E802F41EF8F
:1039D000002DC1ED81EC402C01E4C024802541E59F
:1039E0000027C1E781E640260022C1E281E34023AF
:1039F00001E1C021802041E001A0C060806141A1BF
:103A00000063C1A381A240620066C1A681A740678E
:103A100001A5C065806441A4006CC1AC81AD406D5E
:103A200001AFC06F806E41AE01AAC06A806B41AB2E
:103A30000069C1A981A840680078C1B881B94079FE
:103A400001BBC07B807A41BA01BEC07E807F41BF8E
:103A5000007DC1BD81BC407C01B4C074807541B59E
:103A60000077C1B781B640760072C1B281B34073AE
:103A700001B1C071807041B00050C190819140513E
:103A80000193C053805241920196C056805741978E
:103A90000055C19581944054019CC05C805D419D5E
:103AA000005FC19F819E405E005AC19A819B405B2E
:103AB0000199C059805841980188C048804941897E
:103AC000004BC18B818A404A004EC18E818F404F8E
:103AD000018DC04D804C418C0044C184818540459E
:103AE0000187C047804641860182C04280434183AE
:103AF0000041C181818040400000000000000000C2
:103B000000000000000000003F4000000000000036
:103B100000003000400030004000000009000BC0F1
:103B20003D000BC03D00090018C024407FE022404A
:103B300031800000180024C01B000D80324001803D
:103B400003801C4027401C8007400040100060009C
:103B500000000000000000000000000000001F80C6
:103B6000204040200000402020401F800000000036
:103B7000090006001F800600090000000400040080
:103B80003F800400040000000010006000000000FE
:103B90000000000004000400040004000400000011
:103BA000000000400000000000000000002001C0F4
:103BB00006003800400000001F80204020402040C8
:103BC0001F800000000010403FC0004000000000C7
:103BD00018C021402240244018400000108020409E
:103BE000244024401B80000002000D0011003FC053
:103BF000014000003C8024402440244023800000F9
:103C00001F80244024403440038000003000200006
:103C100027C03800200000001B802440244024409E
:103C20001B8000001C0022C0224022401F80000098
:103C3000000000000840000000000000000000003C
:103C40000460000000000000000004000A001100F1
:103C50002080404009000900090009000900000017
:103C600000004040208011000A00040018002000DD
:103C700023402400180000001F80204027402940D6
:103C80001F400000004007C039000F0001C0004085
:103C900020403FC0244024401B8000001F80204063
:103CA000204020403080000020403FC02040204085
:103CB0001F80000020403FC024402E4030C0000044
:103CC00020403FC024402E00300000000F00108034
:103CD000204022403380020020403FC00400040006
:103CE0003FC02040204020403FC0204020400000F6
:103CF0000060202020203FC02000200020403FC046
:103D000024400B0030C0204020403FC020400040F5
:103D1000004000C03FC03C0003C03C003FC000006A
:103D200020403FC00C4023003FC020001F802040A7
:103D3000204020401F80000020403FC0244024003D
:103D4000180000001F802140214020E01FA000003B
:103D500020403FC02440260019C0004018C0244025
:103D60002440224031800000300020403FC02040ED
:103D70003000000020003F80004000403F802000D5
:103D800020003E0001C0070038002000380007C0B6
:103D90003C0007C038000000204039C0060039C090
:103DA000204000002000384007C0384020000000BC
:103DB000304021C02640384020C0000000000000F4
:103DC0007FE0402040200000000070000C000380D5
:103DD000004000000000402040207FE00000000084
:103DE0000000200040002000000000000010001033
:103DF0000010001000100010000000004000000043
:103E000000000000000002800540054003C00040A3
:103E100020003FC0044004400380000000000380F5
:103E20000440044006400000000003800440244099
:103E30003FC00040000003800540054003400000F3
:103E4000000004401FC0244024402000000002E085
:103E5000055005500650042020403FC00440040097
:103E600003C000400000044027C0004000000000E4
:103E700000100010041027E00000000020403FC0A8
:103E80000140070004C00440204020403FC00040E3
:103E90000040000007C0040007C0040003C0000089
:103EA000044007C00440040003C000400000038039
:103EB0000440044003800000041007F00450044054
:103EC00003800000000003800440045007F000104D
:103ED000044007C002400400040000000000064047
:103EE0000540054004C00000000004001F8004409D
:103EF00000400000040007800040044007C000406C
:103F00000400070004C0018006000400060001C090
:103F1000070001C006000000044006C0010006C002
:103F2000044000000410071004E0018006000400B3
:103F30000000044005C006400440000000000000EE
:103F400004007BE040200000000000000000FFF0C3
:103F500000000000000040207BE0040000000000A2
:103F600040008000400020002000400000000000D1
:103F70000000000000000000000000000000000041
:103F800000001FCC000C0000000000000000080032
:103F9000300060000800300060000000022003FCD8
:103FA0001E20022003FC1E200220000000000E182C
:103FB00011043FFF10840C78000000000F001084F3
:103FC0000F3800C0077818840078000000780F844C
:103FD00010C411240E9800E4008400080800680052
:103FE0007000000000000000000000000000000061
:103FF000000007E018182004400200000000400202
:104000002004181807E000000000000002400240F1
:1040100001800FF00180024002400000008000801B
:1040200000800FF800800080008000000001000D7B
:10403000000E0000000000000000000000000080F2
:104040000080008000800080008000800000000C64
:10405000000C00000000000000000000000000064E
:10406000001800600180060018002000000007F022
:10407000080810041004080807F0000000000804F5
:1040800008041FFC000400040000000000000E0CE7
:1040900010141024104411840E0C000000000C18A1
:1040A00010041104110412880C700000000000E0DC
:1040B0000320042408241FFC0024000000001F9893
:1040C000108411041104108810700000000007F023
:1040D00008881104110418880070000000001C00FA
:1040E000100010FC13001C001000000000000E382F
:1040F00011441084108411440E38000000000700A1
:10410000088C10441044088807F0000000000000EC
:104110000000030C030C0000000000000000000081
:104120000001010600000000000000000000008007
:1041300001400220041008081004000002200220A0
:1041400002200220022002200220000000001004B1
:1041500008080410022001400080000000000E004A
:104160001200100C106C10800F00000003E00C18FF
:1041700013E4142417C4082807D000000004003CEE
:1041800003C41C40074000E4001C000410041FFC92
:104190001104110411040E880070000003E00C18D3
:1041A00010041004100410081C10000010041FFC60
:1041B000100410041004080807F0000010041FFC8D
:1041C0001104110417C410040818000010041FFC87
:1041D0001104110017C010000800000003E00C18C3
:1041E0001004100410441C780040000010041FFC50
:1041F00010840080008010841FFC10040000100454
:1042000010041FFC10041004000000000003000153
:10421000100110011FFE10001000000010041FFC10
:10422000110403801464181C1004000010041FFC07
:104230001004000400040004000C000010041FFC23
:104240001F0000FC1F001FFC1004000010041FFCD6
:104250000C04030000E010181FFC100007F0080811
:10426000100410041004080807F0000010041FFCDC
:1042700010841080108010800F00000007F00818D4
:1042800010241024101C080A07F2000010041FFC60
:104290001104110011C011300E0C000400000E1C9E
:1042A00011041084108410441C3800001800100001
:1042B00010041FFC100410001800000010001FF86C
:1042C00010040004000410041FF8100010001E0069
:1042D00011E0001C007013801C0010001FC0103C77
:1042E00000E01F0000E0103C1FC000001004180C8C
:1042F000163401C001C01634180C100410001C0044
:10430000130400FC13041C00100000000804101C1F
:104310001064108413041C04101800000000000036
:1043200000007FFE4002400240020000000030001A
:104330000C0003800060001C00030000000040022D
:10434000400240027FFE000000000000000000006C
:10435000200040004000400020000000000100015B
:104360000001000100010001000100010000400007
:104370004000200000000000000000000000009845
:10438000012401440144014400FC000410001FFC0E
:104390000088010401040088007000000000007023
:1043A000008801040104010400880000000000707E
:1043B00000880104010411081FFC0004000000F83B
:1043C000014401440144014400C80000000001040C
:1043D00001040FFC1104110411001800000000D6A4
:1043E00001290129012901C90106000010041FFC4F
:1043F000008401000100010400FC0004000001042D
:10440000190419FC0004000400000000000000036F
:1044100000010101190119FE0000000010041FFC39
:104420000024004001B4010C01040000000010044D
:1044300010041FFC0004000400000000010401FC43
:104440000104010001FC0104010000FC010401FC65
:10445000008401000100010400FC0004000000F8D9
:10446000010401040104010400F80000010101FF3E
:104470000085010401040088007000000000007045
:10448000008801040104010501FF00010104010489
:1044900001FC00840104010001800000000000CC48
:1044A00001240124012401240198000000000100DE
:1044B000010007F80104010400000000010001F8F8
:1044C000000400040004010801FC00040100018054
:1044D0000170000C001001600180010001F0010C6E
:1044E000003001C00030010C01F0010000000104A7
:1044F000018C00740170018C010400000101018134
:104500000171000E001801600180010000000184AB
:10451000010C013401440184010C00000000000082
:104520000000000001003EFC4002400200000000CC
:1045300000000000FFFF000000000000000040023B
:1045400040023EFC0100000000000000000060008E
:10455000800080004000400020002000000000009B
:10456000000000000000000000000000000000004B
:10457000000000000000000000000000000000003B
:104580000000000000000000000000000000000F1C
:1045900080380FFE380F8038000000000000000057
:1045A0000000000000000000000001000006000004
:1045B0000C00003800003100000600000C0000383C
:1045C0000000300000000000000000006180006773
:1045D000F807F980006180006180006180006180DF
:1045E0000067F807F980006180000000000000000B
:1045F000000001C0E003E0F00630080418081FFFC7
:10460000FE040E080787F00381E0000000000000B0
:1046100001F000060C00040408060C7001F9C0004B
:104620000E00003BE000EC18070808040C1800031B
:10463000E00000000001E00007F003F818041C0887
:1046400004170807E1D003C0E00023B0003C0800D5
:1046500020080000100000000000000100003100F0
:10466000003200001C0000000000000000000000FC
:10467000000000000000000000000000000000003A
:104680000000000000000000000000007F0001FFAB
:10469000C00780F00C001810000420000200000089
:1046A0000000002000021000040C00180780F00138
:1046B000FFC0007F000000000000000000000000BC
:1046C00000000000000000004200006600006600DC
:1046D000003C0000180003FFC0001800003C000070
:1046E00066000066000042000000000008000008AC
:1046F0000000080000080000080001FFC0000800DA
:104700000008000008000008000008000000000089
:10471000000100003100003200001C000000000019
:104720000000000000000000000000000000000089
:104730000000000008000008000008000008000059
:104740000800000800000800000800000800000839
:1047500000000000000000000000000038000038E9
:104760000000380000000000000000000000000011
:104770000000000000000000000000000006000033
:104780001C000070000180000E0000380000C00016
:104790000700001C000030000000000000000000C6
:1047A0007F8001FFE0038070060018040008040009
:1047B0000806001803807001FFE0007F8000000001
:1047C00000000000000001000801000801000803CB
:1047D000FFF807FFF80000080000080000080000CC
:1047E0000000000000000001C03802C0580400981A
:1047F000040118040218040418061C1803F8180110
:10480000E0F800000000000000000001C0E003C06C
:10481000F004000804080804080806180803F4183F
:1048200001E7F00001E000000000000000000000CF
:104830000300000D00001100006100008108030169
:104840000807FFF80FFFF80001080001080000004A
:104850000000000000E007FCD0060808061008066B
:104860001008061008061838060FF00607C00000EA
:1048700000000000000000003F8001FFE0038430E2
:104880000208180410080410080410080718100380
:104890000FF00007C000000000000000000003C08F
:1048A000000700000600000600F80607F8061800DA
:1048B00006E0000700000600000000000000000104
:1048C000E1E003F7F0063410041808041808040C9B
:1048D00008040C0806161803F3F001C1E0000000FC
:1048E00000000000F80003FC30030638040208044E
:1048F00002080402080404100308F001FFC0007F4E
:1049000000000000000000000000000000000000A7
:10491000000000007038007038007038000000009F
:104920000000000000000000000000000000000087
:104930000000000000000000301A00301C000000E1
:104940000000000000000000000000000000000067
:104950000000000800001400002200004100008058
:104960008001004002002004001008000800000040
:1049700000000000210000210000210000210000B3
:104980002100002100002100002100002100002161
:1049900000000000000000000000080008040010F3
:1049A0000200200100400080800041000022000041
:1049B000140000080000000000000003C00004C054
:1049C00000040000080038080F38080838081000F4
:1049D0000C300007E00003C00000000000000000F1
:1049E0003F8000FFE0038070020F1006708804C053
:1049F00088048308047F8802C09003012000FE40E1
:104A00000000080000180001F8003E0801C200077D
:104A1000020007E20000FE00001FC80001F80000CD
:104A20003800000804000807FFF807FFF80408082A
:104A300004080804080804080806180803F4180104
:104A4000E7F00001E0000000000000003F8001FFEF
:104A5000E003807002001804000804000804000845
:104A60000400100600200780C000000004000807B2
:104A7000FFF807FFF8040008040008040008040019
:104A80001802001003807001FFE0007F800000002A
:104A900004000807FFF807FFF804080804080804E2
:104AA0000808040808043E0804000806001801006D
:104AB0006000000004000807FFF807FFF80408087A
:104AC000040800040800040800043E000600000674
:104AD0000000018000000000000000003F8001FF96
:104AE000E0038070060018040008040208040208AD
:104AF0000203F00783F00002000002000400080730
:104B0000FFF807FFF8040808000800000800000884
:104B10000000080004080807FFF807FFF804000871
:104B2000000000000000040008040008040008075A
:104B3000FFF807FFF804000804000804000800005C
:104B40000000000000000000000600000700000157
:104B500004000104000104000307FFFE07FFFC043A
:104B6000000004000004000004000807FFF807FF2D
:104B7000F8040C08001800003E0004C7800503C8B4
:104B80000600F804003804001800000804000807B4
:104B9000FFF807FFF8040008000008000008000004
:104BA0000800000800000800001800006000000075
:104BB00004000807FFF807800807FC00007FC0001A
:104BC00003F80007C000780007800807FFF807FF18
:104BD000F804000804000807FFF807000803C000F5
:104BE00000E000003800001E000007000001C004C3
:104BF00000F007FFF8040000000000007F8001FFC4
:104C0000E00380700600180400080400080600187D
:104C100003003001FFE0007F80000000040008076F
:104C2000FFF807FFF8040408040400040400040467
:104C300000040400060C0003F80001F0000000006E
:104C4000000000007F8001FFE00380700600880400
:104C500000880400C806003C03003E01FFE6007F18
:104C60008400000004000807FFF807FFF8040808A4
:104C7000040800040C00040F00040BC00610F0032D
:104C8000F03801E00800000800000001E0F803F03F
:104C900030063010041808041808040C08040C0826
:104CA0000206180207F00781E000000001800006FC
:104CB000000004000004000004000807FFF807FFDC
:104CC000F804000804000004000006000001800051
:104CD00004000007FFE007FFF004001800000800D0
:104CE000000800000800000800000804001007FF8A
:104CF000E004000004000006000007E00007FE00DA
:104D0000041FE00001F80000380001E0043E000745
:104D1000C00006000004000004000007E00007FFD8
:104D2000C0041FF80007C007F80007FF80043FF821
:104D30000007C004F80007000004000000000004A1
:104D4000000806001807C07805F1C8003E00001FE3
:104D5000800463E80780F8060018040008000000DB
:104D600004000006000007800007E008047C08003B
:104D70001FF80007F800180804E008070000060004
:104D8000000400000000000100080600380400F8DC
:104D90000403E8040F08047C0805F00807C00807AE
:104DA0000018040060000000000000000000000087
:104DB000000000000000003FFFFE20000220000273
:104DC000200002200002200002000000000000007D
:104DD000000008000007000000C0000038000006C6
:104DE000000001C000003000000E000001000000C3
:104DF000000000000000200002200002200002202D
:104E000000022000023FFFFE000000000000000042
:104E1000000000000000000000000000000800008A
:104E200010000030000020000030000010000008DA
:104E30000000000000000000000001000001000070
:104E4000010000010000010000010000010000015C
:104E5000000001000001000001000001000000004E
:104E600000000000002000002000001000001000E2
:104E70000000000000000000000000000000000032
:104E80000000000000F00019F8001B1800220800C4
:104E90002608002408002410003FF8001FF8000036
:104EA0000800001800000004000007FFF80FFFF0E2
:104EB0000018180010080020080020080030180012
:104EC0001FF0000FC00000000000000007C0001F1E
:104ED000F0001830002008002008002008003C08DE
:104EE000001C100000600000000000000000000036
:104EF00007C0001FF000381800200800200800201C
:104F00000804101007FFF80FFFF000001000000069
:104F10000000000000000007C0001FF00012300079
:104F20002218002208002208003208001E10000E7D
:104F300020000000000000002000002008002008E1
:104F400001FFF803FFF806200804200804200807E2
:104F5000200003000000000000000000000E000E12
:104F60006E001FF30031B10020B10020B10031917B
:104F7000001F13002E1E00200E0030000000000451
:104F8000000807FFF80FFFF80010080020000020BD
:104F900000002008003FF8001FF800000800000093
:104FA0000000000000000020080020080020080683
:104FB0003FF8063FF8000008000008000008000065
:104FC00000000000000000000000000003000003DB
:104FD000002001002001002003063FFE063FFC00E8
:104FE000000000000000000000000004000807FFAF
:104FF000F80FFFF8000188000300002FC00038F808
:105000000020380020080000080000000000000018
:10501000000004000804000804000807FFF80FFF60
:10502000F800000800000800000800000000000070
:10503000002008003FF8003FF800100800200000A2
:105040003FF8003FF8001008002000003FF8003F44
:10505000F8000008000000002008003FF8003FF8BA
:10506000001008001000002000002008003FF80099
:105070001FF80000080000000000000007C0000F3B
:10508000F000183000300800200800200800300828
:10509000001830000FF00007C00000000000000002
:1050A0002001003FFF003FFF0010110020090020F9
:1050B00008002008003038001FF0000FC00000007A
:1050C0000000000007C0001FF00038180020080092
:1050D0002008002009001011001FFF003FFF000002
:1050E00001000000002008002008002008003FF810
:1050F000003FF80008080010080020080020000009
:105100003000003000000000000000000000000C33
:1051100078001E18003308002308002108002188A9
:105120000021980030F0003860000000000000000E
:10513000200000200000200000FFF003FFF8002006
:1051400008002008002008000030000000000000D7
:10515000000000002000003FF0007FF80000180071
:105160000008000008002010003FF8007FF0000059
:1051700010000000000000002000003000003C0093
:10518000003F800023F000007800007000238000C2
:105190003C00003000002000002000003C00003FE8
:1051A000E00023F80000E0002700003E00003FE0A0
:1051B0000021F80001E0003E000020000000000097
:1051C0002008002008003838003E680027800003CF
:1051D000C8002CF800383800201800200800000013
:1051E000000000002000003003003C01003F83006D
:1051F00023EC000070002380003C00002000002011
:105200000000000000000000000000380800203806
:105210000020F80023E8002F88003E08003808002E
:1052200020180000700000000000000000000000D6
:10523000000000000000000008000014001FF7FC40
:105240003000062000020000000000000000000006
:105250000000000000000000000000000000FFFF50
:10526000FF0000000000000000000000000000003F
:105270000000000000002000023000061FF7FC00C4
:105280001400000800000000000000000000000002
:105290000000000000000018000060000040000056
:1052A000400000200000100000080000040000047E
:1052B00000000C0000100000B4F3D1A7D6D0B9FA5A
:1052C0000004C004300408040404020401040100C2
:1052D0000002200C208820692009200922892169E8
:1052E0007E096009A019202820C8200A200C20006F
:1052F00000000000000FF00820082008200820FF10
:10530000FF08200820082008200FF00000000000FF
:105310000000007FFF400248124912491249124F13
:10532000F2491249524932481240027FFF00000000
:10533000000000001FFFF020000820000C2CCCCC47
:105340002CCCCC2CCCCC2CCCCC20000C2000081F9E
:10535000FFF00000000000001FFFF0200008200008
:105360000C2CCC0C2CCC0C2CCC0C2CCC0C20000CF5
:105370002000081FFFF00000000000001FFFF020C9
:10538000000820000C2CC00C2CC00C2CC00C2CC015
:105390000C20000C2000081FFFF00000000000009F
:1053A0001FFFF020000820000C2C000C2C000C2CFF
:1053B000000C2C000C20000C2000081FFFF0000047
:1053C000000000001FFFF020000820000C20000C4F
:1053D00020000C20000C20000C20000C2000081FD6
:1053E000FFF00000000000001FFFF8200004430051
:1053F000C24300C24FC3324FC3324300C24300C254
:105400002000041FFFF80000001FFFFC2000024DD9
:10541000B6D94DB6D94000014DB6D94DB6D94000E8
:10542000014000014FFFF92000021FFFFC000000B7
:105430001C000037FFFC1C00000000000000E03FE3
:10544000FFBC0000E00000001C000037FFFC1C0057
:10545000000000700881041043FE20220220220276
:105460003FE000000000000000000000000000001D
:10547000000000000000000000000000000000002C
:10548000000000000000000000000000000000001C
:10549000000000000000000000000000000000000C
:1054A00000000000000000000000000000000000FC
:1054B00000000000000000000000000000000000EC
:1054C00000000000000000000000000000000000DC
:1054D00000000000000000000000000000000000CC
:1054E00000000000000000000000000000000000BC
:1054F00000000000000000000000000000000000AC
:10550000000000000000000000000000000000009B
:10551000000000000000000000000000000000008B
:10552000000000000000000000000000000000007B
:10553000000000000000000000000000000000006B
:10554000000000000000000000000000000000005B
:10555000000000000000000000000000000000004B
:10556000000000000000000000000000000000003B
:10557000000000000000000000000000000000002B
:10558000000000000000000000000000000000001B
:10559000000000000000000000000000000000000B
:1055A00000000000000000000000000000000000FB
:1055B00000000000000007E00000000FC000000035
:1055C00000000000000006380000000C70003000F1
:1055D00000000000000006180000000C3000300041
:1055E00000000000000006180000000C3000300031
:1055F0000000000000000618783CDE0C307CFC0047
:1056000000000000000006308CC2E30C6186300010
:1056100000000000000007C00CC0C18FC3033000B1
:1056200000000000000006607CE0C18C3303300005
:105630000000000000000631FC78C18C1B03300024
:1056400000000000000006318C3EC18C1B033000BE
:1056500000000000000006198C06C18C1B033000FE
:1056600000000000000006199C86E30C3186300023
:10567000000000000000060CEC7CDE0FE0F81C00CF
:1056800000000000000000000000C000000000005A
:1056900000000000000000000000C000000000004A
:1056A00000000000000000000000C000000000003A
:1056B00000000000000000000000C000000000002A
:1056C00000000000000000000000000000000000DA
:1056D00000000000000000000000000000000000CA
:1056E00000000000000000000000000000000000BA
:1056F00000000000000000000000000000000000AA
:105700000000000000000000000000000000000099
:105710000000000000000000000000000000000089
:105720000000000000000000000000000000000079
:105730000000000000000000000000000000000069
:105740000000000000000000000000000000000059
:105750000000000000000000000000000000000049
:105760000000000000000000000000000000000039
:105770000000000000000000000000000000000029
:105780000000000000000000000000000000000019
:105790000000000000000000000000000000000009
:1057A00000000000000000000000000000000000F9
:1057B00000000000000000000000000000000000E9
:1057C00000000000000000000000000000000000D9
:1057D00000000000000000000000000000000000C9
:1057E00000000000000000000000000000000000B9
:1057F00000000000000000000000000000000000A9
:105800000000000000000000000000000000000098
:105810000000000000000000000000000000000088
:105820000000000000000000000000000000000078
:105830000000000000000000000000000000000068
:105840000000000000000000000000000000000058
:105850000000000000000000000000000000000048
:10586000000000014300015A5A5A5A5A01430000ED
:105870005A5A5A5A5A014D000001FFFFFFFF014FCB
:1058800000FFFF03000000014200000000000000D4
:10589000000000000000000000000000BC580008EC
:1058A0000000002074010000FA070008F059000809
:1058B000740100209C0A0000622000089500A24AA2
:1058C00004A901020304060708097201032001016B
:1058D00010FF316253C4F5A697B988DBEA7D4C1FEF
:1058E0002E4372211087B6E5D4FACB98A93E0F5CFF
:1058F0006D86B7E4D5427320113F0E5D6CFBCA99EB
:10590000A8C5F4A796013063527C4D1E2FB889DAE2
:10591000EB3D0C5F6EF9C89BAA84B5E6D7407122B7
:10592000137E4F1C2DBA8BD8E9C7F6A594033261BC
:1059300050BB8AD9E87F4E1D2C02336051C6F7A4B4
:1059400095F8C99AAB3C0D5E6F4170231285B4E7A0
:10595000D67A4B1829BE8FDCEDC3F2A190073665CD
:105960005439085B6AFDCC9FAE80B1E2D344752602
:1059700017FCCD9EAF38095A6B4574271681B0E3EA
:10598000D2BF8EDDEC7B4A192806376455C2F3A0DE
:10599000914776251483B2E1D0FECF9CAD3A0B58E7
:1059A0006904356657C0F1A293BD8CDFEE79481BC0
:1059B0002AC1F0A3920534675678491A2BBC8DDEB4
:1059C000EF82B3E0D1467724153B0A5968FFCE9D9C
:1059D00052AC620F425544FF00FF62157011010284
:1059E0000304010203040607080902040608000074
:04000005080000ED02
:00000001FF
